:020000040800F2
:100000000018002049060008990600089906000813
:1000100000000000000000000000000000000000E0
:100020000000000000000000000000009906000829
:100030000000000000000000990600088505000887
:1000400099060008000000009906000899060008BB
:100050009906000899060008990600089906000804
:10006000000000009906000899060008990600089B
:10007000990600089906000899060008000000008B
:100080009906000800000000000000009906000822
:10009000000000009906000899060008990600086B
:1000A0000000000099060008000000009906000802
:1000B0009906000800000000000000000000000099
:1000C00010B5064C2378002B07D1054B002B02D02E
:1000D000044800E000BF0123237010BD040000208D
:1000E00000000000E4060008044B10B5002B03D00C
:1000F0000349044800E000BF10BDC04600000000F6
:1001000008000020E406000880B582B000AF0200BD
:10011000FB1D1A70304AFB1D1B7802339B009B5855
:100120001B685A7840210A435A702B4AFB1D1B78E2
:1001300002339B009B581B685A780C218A435A70E3
:10014000254AFB1D1B7802339B009B581B685A787D
:1001500030210A435A70204AFB1D1B7802339B0052
:100160009B581B685A7803218A43111C01220A43B9
:100170005A70194AFB1D1B7802339B009B581B6861
:100180001A787F210A401A70134BDB681B681A78B3
:1001900040218A431A70104BDB681B681A782021B3
:1001A0008A431A700C4BDB681B681A7808218A4353
:1001B0001A70094BDB681B681A7804218A431A708D
:1001C000054BDB681B681A7802218A431A70C04607
:1001D000BD4602B080BDC0460000024090B585B06B
:1001E00000AFB9607A6019000F243B19021C1A7025
:1001F0000C203B180A1C1A80144A21007B181B781B
:1002000002339B009B58BA689A60104A7B181B788F
:1002100002339B009B587A68DA600C4A7B181B7883
:1002200002339B009B583A1812885A60074A7B1881
:100230001B7802339B009B581B681A7801210A43E4
:100240001A70C046BD4605B090BDC04600000240D1
:1002500090B583B000AF040008001100FB1D221C04
:100260001A70BB1D021C1A707B1D0A1C1A70FB1D24
:100270001B78002B02D0012B3ED07EE0BB1D1B78EB
:10028000072B1AD83F4B1A68BB1D1B789B000F2108
:1002900099400B00DB4319003A4B0A401A60394B76
:1002A0001A687B1D1978BB1D1B789B0099400B00B9
:1002B0001900344B0A431A605CE0BB1D1B780F2BFE
:1002C00058D8314B1A68BB1D1B789B000F219940F1
:1002D0000B00DB4319002C4B0A401A602A4B1A68AA
:1002E0007B1D1978BB1D1B789B0099400B001900E2
:1002F000254B0A431A603DE0BB1D1B78072B1AD81B
:10030000224B1A68BB1D1B789B000F2199400B00E4
:10031000DB4319001D4B0A401A601C4B1A687B1DF9
:100320001978BB1D1B789B0099400B001900174BD7
:100330000A431A6020E0BB1D1B780F2B1CD8144BFE
:100340001A68BB1D1B789B000F2199400B00DB43F3
:1003500019000F4B0A401A600D4B1A687B1D197863
:10036000BB1D1B789B0099400B001900084B0A43EA
:100370001A6001E0C04600E0C046C046BD4603B07A
:1003800090BDC0460008014004080140000C014037
:10039000040C014090B583B000AF040008001100C8
:1003A000FB1D221C1A70BB1D021C1A707B1D0A1C2F
:1003B0001A70FB1D1B78022B48D000DD6CE0002B6F
:1003C00002D0012B21D067E07B1D1B78002B0CD1C4
:1003D000334B1A68BB1D1B78012199400B00DB438E
:1003E00019002F4B0A401A6051E07B1D1B78012B2E
:1003F0004DD12B4B1A68BB1D1B78012199400B0076
:100400001900274B0A431A6041E07B1D1B78002B23
:100410000CD1244B1A68BB1D1B78012199400B009D
:10042000DB4319001F4B0A401A6032E07B1D1B782A
:10043000012B2ED11B4B1A68BB1D1B780121994043
:100440000B001900174B0A431A6022E07B1D1B7832
:10045000002B0CD1144B1A68BB1D1B78012199404D
:100460000B00DB431900104B0A401A6013E07B1DA0
:100470001B78012B0FD10C4B1A68BB1D1B78012177
:1004800099400B001900084B0A431A6003E0C0466C
:1004900002E0C04600E0C046C046BD4603B090BD85
:1004A0000C0801400C0C01403010014080B500AF39
:1004B000044B81221A60044B00221A60C046BD46DC
:1004C00080BDC046001002400410024080B582B0DA
:1004D00000AF0200FB1D1A70BB1D0A1C1A70BB1D69
:1004E0001B78202B2DD8FB1D1B78022B1DD028DC60
:1004F000002B02D0012B0CD023E0144B1A68BB1D3B
:100500001B78012199400B001900104B0A431A6017
:1005100017E00F4B1A68BB1D1B78012199400B0097
:1005200019000B4B0A431A600BE00A4B1A68BB1DFB
:100530001B78012199400B001900064B0A431A60F1
:10054000C046C046BD4602B080BDC0461410024041
:100550001C1002401810024080B500AF064A136814
:1005600001218B431360054B00221A60044B0022CB
:100570001A60C046BD4680BD10E000E014E000E017
:1005800018E000E080B582B000AF124B1B68DB03BF
:10059000DB0FDAB2FB1D1A700F4B1B78072B0ED145
:1005A000012200210020FFF7F5FE0C4B1B68002BF9
:1005B0000CD00A4B1B689847FFF7CEFF06E0074BAD
:1005C0001B68002B02D0054B1B689847C046BD46F0
:1005D00002B080BD10E000E00000002020000020FC
:1005E00080B582B000AFFFF761FF02210220FFF764
:1005F0006DFF022200210020FFF72AFE00220021C9
:100600000020FFF7C7FE00237B6001233B60012031
:10061000FFF77AFD3A1D390004230120FFF7DEFDC4
:100620007B68DBB21A0000210020FFF7B3FEF7E77A
:1006300080B500AF034B802212059A60C046BD46CC
:1006400080BDC04600ED00E00D488546002103E076
:100650000C4B5B58435004310B480C4B42189A42E8
:10066000F6D30B4A02E0002313600432094B9A428E
:10067000F9D3FFF7DDFF00F011F8FFF7B1FFFEE758
:1006800000180020040700080000002004000020DB
:100690000400002024000020FEE7000070B50026C2
:1006A0000C4D0D4C641BA410A64209D1002600F08D
:1006B00019F80A4D0A4C641BA410A64205D170BD5E
:1006C000B300EB5898470136EEE7B300EB58984774
:1006D0000136F2E7FC060008FC060008FC060008EC
:1006E00000070008F8B5C046F8BC08BC9E46704735
:0C06F000F8B5C046F8BC08BC9E46704738
:0406FC00E900000809
:04070000C10000082C
:0407040008000000E9
:0400000508000649A0
:00000001FF
